:02000002E0001C
:10C000000000042029C20E0011C20E0013C20E004F
:10C0100015C20E0017C20E0019C20E00000000006B
:10C0200000000000000000000000000041830F003D
:10C030001DC20E00000000001FC20E0021C20E0033
:10C040004D1C0F0023C20E00691C0F00F11E0F00D3
:10C05000011F0F0023C20E0089190F0023C20E001A
:10C0600023C20E0023C20E0023C20E0023C20E0004
:10C0700023C20E0023C20E0023C20E0023C20E00F4
:10C08000D5E70E0023C20E0023C20E0023C20E000D
:10C0900023C20E0023C20E00E17F0F001DD00E0050
:10C0A00039D00E0023C20E0023C20E0023C20E00A0
:10C0B00023C20E0023C20E0000000000000000009A
:10C0C00023C20E0023C20E0023C20E005D1C0F000F
:10C0D000B5E20E0023C20E0023C20E00ED340F00A5
:10C0E00023C20E0023C20E0023C20E000000000077
:10C0F0000000000023C20E000000000023C20E005A
:10C10000000000000000000000000000000000002F
:10C11000000000000000000000000000000000001F
:10C12000000000000000000000000000000000000F
:10C1300000000000000000000000000000000000FF
:10C1400000000000000000000000000000000000EF
:10C1500000000000000000000000000000000000DF
:10C1600000000000000000000000000000000000CF
:10C1700000000000000000000000000000000000BF
:10C1800000000000000000000000000000000000AF
:10C19000000000000000000000000000000000009F
:10C1A000000000000000000000000000000000008F
:10C1B000000000000000000000000000000000007F
:10C1C000000000000000000000000000000000006F
:10C1D000000000000000000000000000000000005F
:10C1E000000000000000000000000000000000004F
:10C1F000000000000000000000000000000000003F
:04C200004F53452132
:0CC2040046414D56303033300000000041
:10C21000FEE7FEE7FEE7FEE7FEE7FEE7FEE7FEE7F6
:10C22000FEE7FEE700F002B8FFF7FCBF0F484FF053
:10C230000701884385460E4880470E48016841F44F
:10C2400070010160BFF34F8FBFF36F8F00F01AB81A
:10C2500009480A490A4A884207D0521A05D0037889
:10C2600001300B700131013AF9D170470000042010
:10C2700041DA0E0088ED00E028920F000826002029
:10C280001C260020384939480A1A02D00722914357
:10C290008D46374937480A1A06D00722914381F361
:10C2A0000988022282F3148833483449344A00F062
:10C2B0003CF834483449354A00F037F834483549B9
:10C2C000354A00F032F835483549364A00F02DF845
:10C2D00035483649364A00F028F836483649374A54
:10C2E00000F023F836483749374A00F01EF837483F
:10C2F0003749002200F031F836483749002200F073
:10C300002CF8364A904726482649884205D00268CC
:10C31000043003B4904703BCF7E700208646EC46A0
:10C32000002000212E4A9047FEE7884214D0521A7E
:10C3300012D003460B4313430324234206D1036860
:10C3400004300B600431043AF9D1704703780130AE
:10C350000B700131013AF9D17047884202D0027066
:10C360000130FAE7704700000000042000F80320C5
:10C37000000004200000042004CA0F001C26002036
:10C3800080260020E4C30E00E4C30E0094910F0049
:10C3900004CA0F001C2600201C2600203C920F001F
:10C3A0003C920F003C920F003C920F003C920F0019
:10C3B0003C920F003C920F003C920F0001CA0F000C
:10C3C00068CA0F00802600208026002080260020DA
:10C3D00074990020749900207499002051C20E00B5
:04C3E000B5C70E00CF
:10C3E4001FB5104B1A7902F5FA62ADF800205A799C
:10C3F4008DF802209A798DF80320DA798DF80420DB
:10C4040001A91A7A5B7A8DF8052068468DF8063002
:10C4140000F090FB18B903A902A800F095FB05B041
:10C424005DF804FB8C26002010B586B00446182263
:10C43400002168460CF07CFE15238DF80030684618
:10C44400034B0194029303F095FC002006B010BD49
:10C45400497B0F0010B586B00446182200216846B7
:10C464000CF066FE16238DF800306846034B0194E9
:10C47400029303F07FFC002006B010BD497B0F003F
:10C4840070B51B29264D86B0044606D101232B60C6
:10C49400244B1970002006B070BD2B68002BF9D016
:10C4A4000A2B02D900232B60F4E71E4E5A1C0D29D7
:10C4B400F1542A60EED1062A19D11B490422701CBA
:10C4C4000CF03DFD30B92046FFF7AEFF00232B6092
:10C4D4000120E0E715490422701C0CF030FD00280F
:10C4E400E0D101F055FF2046FFF7B4FFEEE7042A40
:10C4F400D8D10F490222701C0CF021FD01460028FE
:10C50400D0D1182268460CF013FE14238DF80030A5
:10C514006846084B0194029303F02CFCD6E700BF55
:10C52400AC260020A02600203C920F0041920F0070
:10C5340046920F00497B0F003C4B70B51C68012CE0
:10C54400054619D0032C42D0394A002C69D1102950
:10C55400106804D180F001001060002054E000282D
:10C56400FBD002291460F8D101221A60314B1C60FF
:10C57400314B12221A60F0E72F4E2D4832680568BD
:10C584004A40102932604FF000020DD1012D09D12B
:10C594000260284802680E2A41D8531C0360274BC6
:10C5A4009954DAE70460D8E75DB10229026003D048
:10C5B400032908BF0A46DDE71E4B1A6012233360C5
:10C5C400CBE71C4802680E2AE7D91D60C5E71A4A62
:10C5D4001268914219D100221A60164B174C1B683D
:10C5E400012B01D1237873B11549144803220CF0AF
:10C5F400F9FC40B9E378042B05D12846FFF72AFF5C
:10C60400104800F025FD012070BD032907D1094A17
:10C614001268012A03D1094A1278002ADBD00022C9
:10C62400A8E700211960116097E700BF8826002061
:10C63400842600209C260020802600208C260020B2
:10C6440049920F00E5C30E001F2886BF044A00F07C
:10C654001F004FF0A04201238340C2F80835704701
:10C66400000300507047000008B50B4D642445F0EA
:10C6740001054FF47A40A847013CFAD1BFF34F8F2C
:10C684000649074BCA6802F4E0621343CB60BFF368
:10C694004F8F00BFFDE700BF20930F0000ED00E0C7
:10C6A4000400FA051F2886BF044A00F01F004FF05B
:10C6B400A04201238340C2F80C35704700030050A8
:10C6C40008B513460A46014602480BF013FAFFF771
:10C6D400CBFF00BF90920F00014608B502480BF053
:10C6E40009FAFFF7C1FF00BFC7920F00144B10B542
:10C6F4000C224FF0A04140F20324C3F82427282041
:10C70400C3F82047FFF7A0FFC1F82C470B20FFF721
:10C71400C9FFC1F83C470F20C1F83847FFF794FF21
:10C724000E20FFF791FF0B20FFF78EFF0023C1F8C7
:10C73400343703230620C1F81837FFF785FF10BDEF
:10C74400000300504FF0A042184908B540F20323FB
:10C75400C2F818370620C2F82037C1F82437C1F8C8
:10C764002037C2F83037C2F82C37C2F83437C2F851
:10C774003837C2F83C37FFF795FF0820FFF792FFE0
:10C784002920FFF78FFF2820FFF78CFF0C20FFF7ED
:10C7940089FF0B20FFF786FF0D20FFF783FF0E2094
:10C7A400FFF780FF0F20FFF77DFF08BD0003005057
:10C7B40010B5002004F072FD08B1FFF78DFF04F0FE
:10C7C400D1FB0028F9D104F0FBFB04F07FFC002826
:10C7D400FBD001F0B5FF4FF48051002001F09AFC2A
:10C7E4000028EAD10B484FF4903101F093FC002863
:10C7F400E3D109480BF07EF9012000F0E7F807487F
:10C8040001F0B0FA04460028D7D105480BF072F9BC
:10C814002046D2E700C00E00E2920F0069C60E0067
:10C82400EE920F0003681F2B83BF03F01F03036006
:10C8340001484FF0A0407047000300501FB501901D
:10C8440059B9039003A8FFF7EDFF039B03F5E073C9
:10C8540040F8231005B05DF804FB01A8FFF7E2FFE0
:10C86400019A01239340C0F81835F3E707B5019006
:10C8740001A8FFF7D7FF019A01239340C0F80C35B4
:10C8840003B05DF804FB07B5019001A8FFF7CAFFE8
:10C89400019B03F5E073890040F8231003B05DF8B1
:10C8A40004FB000007B5074B1B5C019301A8FFF7CD
:10C8B400B9FF019A01239340C0F8083503B05DF82D
:10C8C40004FB00BF26930F00014B185CFFF7CEBF9B
:10C8D40026930F0008B50020FFF7F6FF0120FFF7AD
:10C8E400F3FF0220FFF7F0FFBDE808400320FFF745
:10C8F400EBBF00004FF0804313B5D3F84036DB079D
:10C904002ED54FF01023D3F8043303F00703072B7D
:10C9140026D11E4A0123C2F80435D2F80034002B74
:10C92400FBD04FF01021D1F8043323F0070343F078
:10C934000403C1F804330023C2F80435134AD2F8BF
:10C944000034002BFBD0BFF34F8F1149114BCA6841
:10C9540002F4E0621343CB60BFF34F8F00BFFDE7E7
:10C964000D490022032411F8013B019301A8FFF7AC
:10C9740059FF019B013203F5E073042A40F8234078
:10C98400F1D102B0BDE81040FFF7A4BF00E00140C0
:10C9940000ED00E00400FA0526930F0007B50A4BEA
:10C9A4001B5C019301A8FFF73DFF0199D0F8043502
:10C9B40001228A4022EA03011340C0F80815C0F896
:10C9C4000C3503B05DF804FB26930F0013B5044641
:10C9D400FFF790FF01212620FFF730FF002C40F0E5
:10C9E4008F802620FFF742FF01210520FFF726FF55
:10C9F4000720FFF723FF0520FFF738FF0720FFF785
:10CA040035FF03211B20FFF73EFF00210846FFF7F7
:10CA140015FF0120FFF712FF1A20FFF70FFF012176
:10CA24001420FFF730FF01211820FFF72CFF03210A
:10CA34002120FFF728FF01210420FFF7FFFE042037
:10CA4400FFF714FF1F20FFF7F9FE1F20FFF70EFF6B
:10CA54001020FFF7F3FE1020FFF708FF0321122038
:10CA6400FFF711FF03211520FFF70DFF03212020FD
:10CA7400FFF709FF03211620FFF705FF0321172005
:10CA8400FFF701FF03211320FFF7FDFE012106201C
:10CA9400FFF7D4FE0820FFF7D1FE2920FFF7CEFED2
:10CAA4002820FFF7CBFE0C20FFF7C8FE0B20FFF772
:10CAB400C5FE0D20FFF7C2FE03210E20FFF7E3FEA3
:10CAC40003210F20FFF7DFFE0620FFF7CFFE08202B
:10CAD400FFF7CCFE2920FFF7C9FE2820FFF7C6FE8A
:10CAE4000C20FFF7C3FE0B20FFF7C0FE0D20FFF75D
:10CAF400BDFE03210A2002B0BDE81040FFF7C3BE0B
:10CB0400262301A80193FFF78DFE019B9940C0F8ED
:10CB1400081569E708B5054A054B13605B68984733
:10CB2400003818BF0120404208BD00BFB0260020D5
:10CB340068930F00034B1B680BB1DB6818474FF079
:10CB4400FF307047B0260020034B1B680BB11B69F4
:10CB540018474FF0FF307047B0260020034B1B6886
:10CB64000BB19B6A18474FF0FF307047B026002086
:10CB7400030903EB830300F00F0000EB4300C0B292
:10CB840070470A21B0FBF1F21301DBB201FB120082
:10CB94001843C0B27047000030B50E4B85B01B7807
:10CBA40000250001CDF80950144603958DF80800BE
:10CBB4006BB10DF109000CF089FA631C064800956D
:10CBC400DBB202AA322105F06BFC05B030BD0320B4
:10CBD400FBE700BFB4260020A8930F00002310B584
:10CBE400084909481A4604F0E9FB044628B10146FD
:10CBF40006480AF07FFF204610BD054805F01EFADE
:10CC0400F9E700BF94930F00A4930F002A930F0039
:10CC1400A8930F0008B5FFF7E1FF08BD014800F035
:10CC240017BA00BF81CD0E0007B50B460749097836
:10CC340051B100010092322100F0F002044805F0E5
:10CC440042FC03B05DF804FB0320FAE7B42600209D
:10CC5400A8930F0007B501220DF107010F20FFF77C
:10CC6400E3FF30B99DF80700C0F3401003B05DF84E
:10CC740004FB0020FAE707B501220DF107010E209D
:10CC8400FFF7D2FF30B99DF80700C0F3801003B05E
:10CC94005DF804FB0020FAE713B5012204460DF108
:10CCA40007010F20FFF7C0FFD8B99DF8073003F044
:10CCB40020028CB1C2B943F0200301220DF1070117
:10CCC4000F208DF80730FFF767FF041E18BF0124FB
:10CCD4006442204602B010BD002AFAD003F0DF03FC
:10CCE400EBE74FF0FF34F4E70446F2E737B50C46C0
:10CCF40015460DF1030101220E20FFF795FF18B12F
:10CD04004FF0FF3003B030BD35B36078FFF739FF23
:10CD14008DF804002078FFF734FF02228DF8050017
:10CD240001A90B20FFF738FF0028E9D19DF8033053
:10CD340003F07F0343F0400301220DF103010E20B1
:10CD44008DF80330FFF728FF0028D9D101212120D5
:10CD540004F0ACFD0020D5E79DF80330012203F078
:10CD64003F030DF103010E208DF80330FFF714FF8C
:10CD74000028C5D1212004F0E3FDEBE70022114691
:10CD84001046FFF7B3BF000073B50446FFF726FF54
:10CD9400C0BB2A4E01233370BCB3072501220DF119
:10CDA40003010E20FFF740FF18BB012201A90F2049
:10CDB400FFF73AFFE8B99DF80430012203F020039D
:10CDC40001A90F208DF80430FFF7E6FE88B90B2384
:10CDD400012201A907208DF80430FFF7DDFE40B9D8
:10CDE4002023012201A90E208DF80430FFF7D4FE80
:10CDF40058B1322000F042F9013DCFD110483570CE
:10CE040005F052F94FF0FF3010E040F20233ADF874
:10CE140004309DF806300B4A23F0070301A92120B2
:10CE24008DF8063004F0B2FC14B9002002B070BDD5
:10CE3400002211461046FFF759FFF6E7B4260020FA
:10CE4400A8930F0021CC0E0008B50B4805F02CF96F
:10CE54004FF0A0430422C3F85027C3F86027074BC0
:10CE64001B7813B1212004F06BFD054B0C22C3F891
:10CE74000427002008BD00BFA8930F00B42600209B
:10CE840000030050FFF7E0BF13B50446807800F0BC
:10CE94003F00FFF776FE8DF80400607800F03F0055
:10CEA400FFF76FFE8DF80500207800F01F00FFF7F4
:10CEB40068FE03228DF8060001A90020FFF76CFE2E
:10CEC400003818BF0120404202B010BD13B504461B
:10CED400C078FFF756FE8DF80400A078FFF751FEE6
:10CEE40023888DF80500B3F5FA6F25BF60F07F0045
:10CEF4008DF80500A3F16C0003F13000C0B2FFF718
:10CF040040FE03228DF8060001A90420FFF744FE29
:10CF1400003818BF0120404202B010BD10B50446CD
:10CF24000846FFF7B1FF20B92046FFF7CFFF00B254
:10CF340010BD4FF0FF30FBE737B5054603226946C5
:10CF44000420FFF771FE20B14FF0FF34204603B0F8
:10CF540030BD032201A90420FFF766FE0028F3D1A7
:10CF64000322694601A80BF0EAFF04460028E5D134
:10CF74009DF80200FFF7FCFD9DF901309DF80120AA
:10CF8400002B40F26C73B8BF4FF4FA6303442B8058
:10CF940002F07F00FFF7ECFDA8709DF80000FFF79A
:10CFA400E7FDE870D2E737B505460322694600205D
:10CFB400FFF73AFE20B14FF0FF34204603B030BDF6
:10CFC400032201A9FFF730FE0028F4D103226946A9
:10CFD40001A80BF0B4FF04460028E6D19DF8020036
:10CFE400FFF7C6FD28709DF80100FFF7C1FD6870CA
:10CFF4009DF80000FFF7BCFDA870DEE710B50446FD
:10D004000846FFF7D0FF20B92046FFF795FF00B28E
:10D0140010BD4FF0FF30FBE7044B0022C3F80021A2
:10D02400034B1B6803B11847704700BF00700140F1
:10D03400BC260020044B0022C3F80021034B1B68CC
:10D0440003B11847704700BF00800140B826002094
:10D05400074B08491860084B0122E020C3F8042359
:10D0640081F817034FF4000008601A60704700BF8E
:10D07400BC26002000E100E00070014038B14FF40C
:10D084007A735843024B800143F0010318477047F9
:10D09400C0930F000023C0E902328B881A44B1F90F
:10D0A400063002611A44C0E9001142610888003860
:10D0B40018BF012070474268118838B5034641B152
:10D0C40002F110014160118A29B9C2680168FFF7B1
:10D0D400E1FF002038BD907811891C6900F030050B
:10D0E400302D13D1957C05F03005302D15D1918864
:10D0F400611A19610021908AB2F91620084419694D
:10D1040001441961114459610120E3E700F0F0047E
:10D11400202C08D150894143EDE700F0C00080285D
:10D1240008BF0421E7E700F0C000802808BF0421FD
:10D13400002DE0D1986801309860DCE770B546684E
:10D1440004460D4663681A88AA4204D19B7803F00A
:10D154000F03082B07D12046FFF7ADFF6368B342E6
:10D16400F0D1002070BD0120FCE743681A444260FE
:10D1740011B101399A4201D10120704713F8010B12
:10D1840001F8010FF6E7836810B504460BB90020D7
:10D1940010BD0368012298470028F8D0A368013B1A
:10D1A400A360F5E72DE9F3410F460DF10701804631
:10D1B400FFF7E9FF054620B90025284602B0BDE87F
:10D1C400F0819DF907309DF80740002B13DA04F035
:10D1D4007F0407260DF107014046FFF7D4FF00281E
:10D1E400EAD09DF8072002F07F03B3401C431306E6
:10D1F40006F1070601D43C60DFE7232EEAD1DBE722
:10D2040070B541688A7802F00F05082D86B0034690
:10D214001FD103691C6800260CB906B070BD2368D1
:10D2240062689D68267329466846FFF733FF636882
:10D23400049304F10C030593AB7803F0C003802B33
:10D2440008BF231D684608BF0493FFF7D9FFA468ED
:10D25400E2E73F2A24D802F0300010280DD15A69A1
:10D2640000201070072DCC6818690CD101462046A7
:10D2740006B0BDE8704000F01FB89006F2D55B69B7
:10D2840000221A80C9E70A89214624B106B0BDE804
:10D2940070400BF01BBF06B0BDE870400BF048BFF8
:10D2A40002F0C0018029B8D1006900210160920612
:10D2B40044BF5B691980B0E77FB50A4601466846FA
:10D2C400FFF7E8FE30B16846FFF79AFF6846FFF7BC
:10D2D400F2FEF7E707B05DF804FB000030B5044642
:10D2E40085B01546A9B90268114B9A4211D0102D88
:10D2F40006D82A4669462046FFF7F0FF05B030BD40
:10D30400102269462046FFF7E9FF0028F6D0103DB9
:10D31400EDE7A368AB4201D20020EFE723682A4679
:10D32400204698470028F7D0A3685B1BA360E5E775
:10D334006FD10E002DE9F3410F4601A98046164630
:10D34400FFF730FFA0B1019C621C4FF0000504D22E
:10D35400BB7803F0C003802B01D1284608E03B8949
:10D364009342FAD3224631464046FFF7B7FF35557C
:10D3740002B0BDE8F08173B50D4601A90646144616
:10D38400FFF710FFB0B1019AB2F5803F12D2AB782B
:10D3940003F0C003802B02F102010BD02B898B42D6
:10D3A40008D32146304621F8022B02B0BDE8704074
:10D3B400FFF794BF002002B070BD000010B5034C0D
:10D3C40082600022C0E90041C26010BD6FD10E002E
:10D3D4002DE9F341002506460F46A8462C460DF1DB
:10D3E40007013046FFF7CFFEC0B19DF807C0A4F196
:10D3F40020030CF07F02C4F1200102FA03F322FAA5
:10D4040001F10B43A2401CF0800F45EA020543EAF8
:10D41400080804F1070404D1C7E9005802B0BDE8C4
:10D42400F081462CDBD10020F8E737B50D4669467C
:10D434001446FFF7CDFF70B12B89082B0DD1DDE920
:10D444000032C4E90032DDE90001914208BF98428C
:10D454000CBF0120002003B030BD042B03D1009B7E
:10D4640023600022EFE7022B03D1009B23809BB2B1
:10D47400F7E7012B04D1009B237003F0FF03F0E7CF
:10D484000020E8E737B50D4669461446FFF7A0FFCC
:10D4940030B12B89082BDDE9001203D1C4E9001255
:10D4A40003B030BD042B4FEAE17009D121600B4673
:10D4B4000246824208BF8B420CBF01200020EFE7E6
:10D4C400022B03D10BB22380DA17F2E7012B02D12E
:10D4D4004BB22370F8E70020E2E7F7B51F460023BC
:10D4E4003B700D460B70136001A904461646FFF706
:10D4F40059FE38B9A36813B1002003B0F0BD01236D
:10D504003B70F9E7019C002CF9D0E30804F0070410
:10D5140033602C70F1E713B50446052921D8DFE800
:10D5240001F0030F1720201E012201A92046FFF756
:10D53400D5FE18B19DF90430002BF5DB02B010BD07
:10D5440008220021204602B0BDE81040FFF7C6BE05
:10D5540001A9FFF727FE0028F0D0019AF1E7042281
:10D56400EFE70020EAE773B50D4601A90446FFF78B
:10D5740019FE064618B90026304602B070BD94E87C
:10D584000F0085E80F0001998A42F4D3A960A368CB
:10D594005B1AA360F0E700002DE9F0435668B37806
:10D5A40013F0C00489B007468C46154603D0402CBE
:10D5B40069D000240CE003F00F02604903F030034B
:10D5C400202B51F8228025D006D8E3B1102B17D098
:10D5D400204609B0BDE8F083302BF9D16B6931885E
:10D5E4001980072A09D12146328928690BF0A0FD48
:10D5F4006B682969D868FFF75FFE2A69696840E0AB
:10D604006B6901221A702A693146434609B0BDE8A4
:10D61400F0431847BCF1020FD5F8149024D1042A22
:10D6240022D804A9FFF79FFF04460028C1D0069B17
:10D634002BB16968B9F800304A899A4205D8059B2C
:10D644007B60069B002BB4D1C2E708892A6903FBDF
:10D65400002204A8C04728B1B9F800300133A9F862
:10D664000030E4E70446EAE7B9F8003072899A42E8
:10D674009FD931892A69581C03FB0122A9F80000AB
:10D6840031463846C1E7D2F81080464656F8043B86
:10D6940023B909B0BDE8F043FFF73DBF022914D117
:10D6A40004A9FFF760FF002883D0D8F80030696828
:10D6B400324604A89847044600283FF47AAF069BF4
:10D6C400002BF2D1059B7B6082E7012926D0052936
:10D6D4002CD000297FF46DAF0C460DF10409013400
:10D6E4000B2C3FF466AF012249463846FFF7F6FD9E
:10D6F40000283FF45EAF19F9013B002BEFDB104B20
:10D70400049301ABCDE90534002307936968D8F885
:10D714000030324604A89847044659E7082201A974
:10D72400FFF7DCFD08240028E9D142E704220DEBD1
:10D734000201FFF7D3FD0424F5E700BFC8930F00EF
:10D744006FD10E002DE9F04790B00446002604A8DE
:10D75400CDE90266FFF79EFCA3683BBBDDE9053417
:10D7640004A89D78FFF7A7FC0028F7D115F0300F27
:10D7740003D1059B1B8803B10134002C00F0B48055
:10D78400630902A90022934240F0A78010AA02EB89
:10D79400830304F01F0453F8383CC4F120044FF011
:10D7A400FF30E040C31A584258410DE00DF1030325
:10D7B40001AA0DF102012046FFF78FFE38B99DF84A
:10D7C4000330002BCAD1002010B0BDE8F087019FC0
:10D7D40004A83946FFF7B2FC002857D1B7424CD30E
:10D7E400059D059A937803F00F03082B7ED004A8B7
:10D7F400FFF761FC059B9D42F3D14FF0FF36B74222
:10D804009DF8029039D3089BD4F808801D68A3685A
:10D8140085B39845A0D12B68D3F800A0BAF1000FC6
:10D8240008D04B463A4629462046D0470028CAD05D
:10D83400AD68ECE7D3F808A0BAF800309F42F7D1FE
:10D844006A6851460AA8FFF725FC6B680E9305F138
:10D854000C030F939AF8023003F0C003802B04BF2B
:10D864002B1D0E9301232B730AAA49462046FFF76A
:10D8740093FEDBE798457FF46FAF9DF802102046D6
:10D88400FFF749FE00287FF467AF9CE7059B9B7870
:10D8940013F0300F0FD1069A3F2A0CD8510910AB60
:10D8A40003EB810102F01F020123934051F8382C4D
:10D8B400134341F8383CD4F80C809DF80250B8F179
:10D8C400000F04D004AB2A4639462046C04704AAB8
:10D8D40029462046FFF760FED4E751F8040B0130D7
:10D8E4007FF471AF01324EE701206DE7168886E7B9
:10D8F40070B50C460646154611462046FFF7DCFC7B
:10D904002A4621463046BDE87040FFF71BBFF0B5FC
:10D9140085B0CF680C46694605461646FFF723FED8
:10D9240068B1E06858B1A37803F03003202B324685
:10D934003946684605D1FFF7DBFF019B6B6005B0F4
:10D94400F0BDFFF7FFFEF8E713B50C466946FFF795
:10D954003FFD60B1DDE900134A0842EAC372C9071A
:10D964004FEA530344BFD243DB43C4E9002302B06C
:10D9740010BD37B50D4669461446FFF7E5FF70B193
:10D984002B89082B0DD1DDE90032C4E90032DDE931
:10D994000001914208BF98420CBF0120002003B04F
:10D9A40030BD042B03D1009B2360DA17EFE7022B71
:10D9B40003D1BDF900302380F7E7012B03D19DF992
:10D9C40000302370F1E70020E9E713B504220C4688
:10D9D4000DEB0201FFF782FC08B1019B236002B04A
:10D9E40010BD1146FFF7F1BF13B508220C46694676
:10D9F400FFF774FC18B1DDE90023C4E9002302B089
:10DA040010BD1146FFF7F0BF4FF08053D3F830211B
:10DA1400082A06D1D3F83431052B02D8024AD05C47
:10DA240070470020704700BFF2930F00024AD2F8FB
:10DA34000034002BFBD0704700E0014008B54FF0E4
:10DA44008053D3F83021082A4ED14FF08042002170
:10DA5400C2F80C11C2F81011C2F8381502F5404290
:10DA6400D3F80414C2F82015D3F80814C2F8241506
:10DA7400D3F80C14C2F82815D3F81014C2F82C15D6
:10DA8400D3F81414C2F83015D3F81814C2F83415A6
:10DA9400D3F81C14C2F84015D3F82014C2F8441566
:10DAA400D3F82414C2F84815D3F82814C2F84C1536
:10DAB400D3F82C14C2F85015D3F83014C2F8541506
:10DAC400D3F83414C2F86015D3F83814C2F86415C6
:10DAD400D3F83C14C2F86815D3F84014C2F86C1596
:10DAE400D3F84434C2F87035FFF78EFF18B13F4BBA
:10DAF4003F4AC3F88C26FFF787FF18B13D4BFB2242
:10DB0400C3F81825FFF780FF70B14FF080414FF044
:10DB14008053D1F8E42ED3F8583222F00F0203F0E8
:10DB24000F031343C1F8E43EFFF76EFF20B1324BFD
:10DB34004FF40072C3F840264FF08053D3F83031CD
:10DB4400082B09D14FF08043D3F80024D20744BFF7
:10DB54006FF00102C3F80024284AD2F8883043F455
:10DB64007003C2F88830BFF34F8FBFF36F8F4FF04D
:10DB74008053D3F83021082A0ED1D3F83431052B41
:10DB840002D81F4AD35C3BB14FF01023D3F80822CC
:10DB94004FF08043C3F858254FF01021D1F80C32D0
:10DBA400DB071FD517480123C0F80435FFF73EFFF4
:10DBB400D1F80C3223F00103C1F80C32FFF736FF21
:10DBC4000023C0F80435FFF731FFBFF34F8F0B4933
:10DBD4000D4BCA6802F4E0621343CB60BFF34F8F6E
:10DBE40000BFFDE7094B0A4A1A6008BD0050004017
:10DBF4004881030000F000400090024000ED00E086
:10DC0400EC930F0000E001400400FA051C260020FC
:10DC14000090D003008800F00100704741DF704796
:10DC24001F288ABF054B4FF0A04300F01F00D3F814
:10DC3400103523FA00F000F0010070470003005093
:10DC4400014B01221A707047E12A0020BFF34F8F65
:10DC54000549064BCA6802F4E0621343CB60BFF384
:10DC64004F8F00BFFDE700BF00ED00E00400FA05A0
:10DC740008B5054809F03EFF044B054800221A7018
:10DC8400BDE8084002F0F0B9F8930F00E12A002043
:10DC940051DC0E00042810B5044609D802280DD81A
:10DCA40018D00E4B1B68C3B12046BDE8104018477E
:10DCB400831F012BF5D8FFF7DBFFF2E7084B094977
:10DCC40003221A60084B78224FF400401A6000F0D7
:10DCD40031FBE6E702F0CAF8E3E710BDE42A0020CE
:10DCE40020260020F1DC0E0024260020154A08B569
:10DCF4001368002B07DD013B136023B9124809F0B8
:10DD0400F9FEFFF7B5FF4FF40040104900F012FB95
:10DD14001120FFF785FF0E4A80B92220FFF780FF0C
:10DD240060B91368002B0BDD013B136043B906484F
:10DD340009F0E0FEBDE80840FFF79ABF0323136033
:10DD440008BD00BF242600200E940F00F1DC0E0055
:10DD54002026002008B5024809F0CCFE002008BDAA
:10DD640022940F002DE9F3410446AF4809F0C2FEA6
:10DD7400AE4B4FF0A0421C60AD4BC2F844370020BC
:10DD8400C2F8083A02F086F9002840F04981A94C0B
:10DD94006369012B1FD1A84809F0ACFE02F09CFD79
:10DDA40002F0E4FD90B101A9684602F019FE0128D1
:10DDB4000CD102F0E1FD012808D1DDE9000103F0F6
:10DDC40025F8012802D19D4809F094FE00239C48BF
:10DDD400636102F04FF91120FFF722FF00283ED0C3
:10DDE4000023984E33703378002B69D14FF0804371
:10DDF400D3F80034D80363D5FEF778FC00F0E4FBD5
:10DE0400012800F00881022800F0BD80002840F0BD
:10DE14000781337803F0FF07002B40F0A9804FF00F
:10DE24008043D3F80024D10309D4D3F82025120663
:10DE340049D5D3F8202502F07F02C3F820254FF0FE
:10DE4400000802F013FA236A012B054641D07E48EC
:10DE540009F050FE7D4809F04DFE032787E022209B
:10DE6400FFF7DEFE0028BBD1FEF71CFD0120FEF704
:10DE740019FD0220FEF716FD1120FFF7D1FEC8B1EF
:10DE8400734EC82546F001064FF47A40B047013D71
:10DE9400FAD1FEF71FFD1120FFF7C2FE00289FD123
:10DEA4002220FFF7BDFE01289AD16A4809F022FE1C
:10DEB400032396E72220FFF7B3FE0028DCD0DFE738
:10DEC400FEF740FC9AE7644809F014FE4FF001089D
:10DED400B7E74FF440535A68604B9A422AD1626BB9
:10DEE400B8F1000F1ED194F86032012B1AD102F060
:10DEF400BDF9A269014694F8A132012B21D105F59F
:10DF040000755749042228460BF019F840B9554BBF
:10DF140029791A78914203D1AA799B789A4217D029
:10DF2400514895E751484FF4805102F0C3FD08B9B8
:10DF34004F488DE702F09AF9A2690146B8F1000F43
:10DF4400D9D04C4802F0B6FD0028D8D14A487FE722
:10DF54004A4809F0CFFD4FF08042D2F81C3503F057
:10DF6400FB03B22B07D1464809F0C4FD02273770E2
:10DF74004FF400440BE0D2F81C3503F0FB03B32B41
:10DF8400F5D1404867E7032333704FF4A024337876
:10DF9400002B00F085804FF080434FF48032C3F8AB
:10DFA40000240120FEF7B6FDFEF7D8FDC30702D515
:10DFB400022007F03FFA00F019FC334A2021182010
:10DFC40005F006FC08B1FEF787FB4FF08043D3F859
:10DFD4001C2502F0F802B02A02BFD3F81C2502F077
:10DFE4000702C3F81C25FFF7B5FEC8B9274B28491B
:10DFF400782220461A6000F09DF9264800F0B2FD10
:10E0040070B9254809F076FD00F02EFC05F062FC9D
:10E01400FFF704FEF8E7FFF72BFE204809F06AFD3E
:10E02400032002B0BDE8F0813C940F00E42A0020F4
:10E034000C000300BC42002053940F0076940F00A0
:10E0440045DC0E00E02A0020C6940F0096950F00D0
:10E0540030960F0091940F00B0940F00DBE5B1519E
:10E0640057950F0004C20E005C950F001C4500205C
:10E07400F4940F005D4500202F950F0089950F0043
:10E08400B9950F00DF950F00C0260020242600203C
:10E09400F1DC0E0099DC0E0017960F000B960F00B2
:10E0A40002F06AF80028BBD1034B1870034801F052
:10E0B400DBFF00F005F8B0E7E12A002045DC0E00A4
:10E0C40010B50E4C0E484FF4805109F013FDD4F8EE
:10E0D40080100C4809F00EFD4FF0FF33C4F8803077
:10E0E400C4F8803101F04CFB10B1074809F002FD7F
:10E0F400BDE810404FF4805000F02EB800E100E07D
:10E1040036960F006C960F0096960F0080F30888E1
:10E114000847000070B50546C1F30B00A8B9B5F572
:10E124007F2F12D80B4E3268072A10D8130103F13F
:10E13400804404F5F0340132C4F80058C4F80418DB
:10E144000221C4F80818326070BD0720FCE70420DF
:10E15400FAE700BFE82A002038B54FF498310546A5
:10E164001948FFF7D7FF044630B10146174809F0B4
:10E17400C1FC2046FEF7B0FA02F078F8144B9B6914
:10E1840003F6FF7323F47F6323F00F0319180020B1
:10E19400FFF7C0FF044630B101460E4809F0AAFC5F
:10E1A4002046FEF799FAEFF305830023D5E9000131
:10E1B40083F3148883F3108883F3118883F313881B
:10E1C400BDE83840FFF7A2BF00C00E00CB960F0099
:10E1D400BC42002002970F001FB518490B7853BBAF
:10E1E4004FF08043A024D3F81824D2035CBF01224B
:10E1F4009A60134B0022C3F80021D3F80001039066
:10E204000398C3F84021D3F8400102900298C3F860
:10E214004421D3F84401019001980A4880F824432A
:10E22400102444600220C3F8082501229A601A6071
:10E23400C3F804030A7004B010BD00BFEC2A002028
:10E244000040024000E100E037B56FF07F42154C1A
:10E25400057BD4F804358A4228BF0A46891A134438
:10E264004A1E942A23F07F4305F5A8729CBF963B6F
:10E274009631416044F822300B4B4FF4F86043F080
:10E2840001039847094BAA00134400221A601B6833
:10E294000193019B4FF48033AB40C4F8043303B0C3
:10E2A40030BD00BF0040024040970F004041024093
:10E2B4001B4BD3F8042173B552B11A490A680132D1
:10E2C4000A600022C3F80421D3F804310093009BB0
:10E2D400154C164D164E2B6883B100232B602B680A
:10E2E400227B0193019B4FF4803393400C4AC2F884
:10E2F4000833616851B12046FFF7A6FFB54204F127
:10E30400100401D102B070BD3546E4E7A16811B133
:10E314002046FFF799FF2368002BEFD09847EDE7DD
:10E3240000400240F02A00203026002040410240F4
:10E334004441024070B50B4B1D682A7B4FF4803377
:10E344009340094A0E46C2F80833044640B1FFF729
:10E3540043FF2E6021462846BDE87040FFF774BF96
:10E3640070BD00BF2C2600200040024070B5074B52
:10E374001D6804460E46A860FFF72EFF2E60214656
:10E384002846BDE87040FFF75FBF00BF2826002085
:10E39400044B1B681A7B4FF480339340024AC2F843
:10E3A400083370472826002000400240014B012218
:10E3B4001A707047F42A002038B5194BDA6A5D6A7E
:10E3C4009C6CAC2A14D15B6B1C44ED1A154916489D
:10E3D40022462B4609F08EFB12482A4621460AF0B3
:10E3E400AEFD58B9114809F085FB0024204638BD1C
:10E3F400002CEBD101F04EFF0446E7E721462A4604
:10E404000B4809F077FB00F02FFA2046294601F06B
:10E4140099F904460028E8D0064809F06BFBE5E7C3
:10E42400BC42002000C00E0046970F007B970F00EF
:10E43400B2970F00DF970F0081422DE9F74F054691
:10E444000E46174604D12B4809F054FB00244DE036
:10E45400A6EB05084FEA183802F6FF7A00F0C6F971
:10E46400B8F1080F28BF4FF008084FEA0833DFF867
:10E4740090B001934FEA1A3A002FE7D0D0452CBF51
:10E48400CDF800A0CDF80080009938BFDDF80490E5
:10E494004FF00002284628BFB94601F025F904468A
:10E4A40020BB4B462A463146134809F023FB09F1A9
:10E4B4000302234622F003023146284601F0F0F815
:10E4C400044698B9009BAAEB030ADBF830304B44AE
:10E4D400CBF8303001F0CEFDA7EB09074D444E4494
:10E4E40004460028C8D0054809F004FB204603B0C0
:10E4F400BDE8F08FF9970F0008980F0029980F00D6
:10E50400BC4200202DE9F04101F0D6FE264DD5F89D
:10E5140048802F6B6C6B0646244809F0EBFA08F52B
:10E5240000535A68224B9A4206D0224809F0E2FA74
:10E5340003242046BDE8F0812A6BA242904404D112
:10E544001D4809F0D7FA0024F3E7BAB94FF4405351
:10E554001978142982BF5969184BB1FBF3F108F5F6
:10E56400005398BF11461878142888BF5A69144874
:10E5740084BF124BB2FBF3F209F0BCFAE21B02F6C1
:10E58400FF7222F47F6222F00F024146F019FFF776
:10E5940053FF044618B10B4809F0ACFAC9E7BDE8CB
:10E5A400F04101F067BD00BFBC42002062980F003B
:10E5B400DBE5B15187980F00BB980F0040420F0074
:10E5C400CD980F00F6980F002DE9F041484D4948C9
:10E5D40009F090FAEB6AAA2B73D009D8012B19D051
:10E5E400A52B64D0444809F085FA0020BDE8F081E9
:10E5F400AC2BF7D1414809F07DFA414809F07AFA89
:10E60400FFF780FF0446002863D03E4809F072FA01
:10E6140001261CE03C4809F06DFA6E6AD5F8488082
:10E6240001F024FE2C6B0719384809F063FA2B6BB0
:10E6340008EB03018F4214BF321B00223846FFF758
:10E64400FBFE044648B1324809F054FA0026EA6A4F
:10E654003048214609F04EFA11E001F007FE224647
:10E66400314607F0EFFBA96A884204461AD12A48CA
:10E6740009F040FA0123C5E90743AE6100262748A3
:10E6840001F0EAFD264B274800221A7001F0F2FC43
:10E6940038BB5EB32B6A012B28D1234809F02AFA30
:10E6A4000220A3E70246214809F024FAE6E72048BD
:10E6B40009F020FAFFF726FF01260446002CDED0DD
:10E6C400C5E71C4809F016FAFFF776FE0026044653
:10E6D400F4E7FFF771FE044608B1174896E70126F0
:10E6E400CDE7164809F006FA03207FE701207DE70D
:10E6F400BC4200200F990F001B9A0F00C4990F0011
:10E70400D2990F00EF990F0030990F003A990F003A
:10E71400F6980F00349A0F0055990F00E04200203C
:10E72400F42A0020B1E30E00669A0F006A990F00E4
:10E73400B2990F00BB990F00059A0F00C29A0F00FF
:10E7440010B50024D4F8F83F013304D1084940F649
:10E75400F87002F0CFFED4F8FC3F013307D1BDE8D6
:10E7640010404FF47E2140F6FC7002F0C3BE10BD91
:10E7740000C00E000A4AD2F800347BB109480023D5
:10E78400D2F80815D940C90748BF03F5C07103F191
:10E79400010348BF42F82100072BF1D1704700BFA5
:10E7A400000001403546526E08B5074BD3F80034DB
:10E7B40023B1064809F09EF9FFF7DCFFBDE80840E5
:10E7C4000120FEF7EBB800BF00000140DC9A0F0007
:10E7D400054B002282B0C3F80021D3F80031019325
:10E7E400019B02B0704700BF0000014070B5174D97
:10E7F4002B7803BB164BD3F80024EAB1D3F8046595
:10E804001448314640F6165409F074F9B442B8BFBE
:10E814003446A4F54864FFF7ADFF21460E4809F0DD
:10E8240069F90E492046FFF7A1FD0D4B4FF48032E4
:10E834001A6001232B7070BD08494FF48040FFF724
:10E8440095FD084809F056F9F3E700BFF52A0020C2
:10E8540000000140EA9A0F00039B0F00ADE70E0091
:10E8640000E100E0359B0F00034BD3F800340BB1FB
:10E87400FFF780BF704700BF00000140034620B18E
:10E8840031B10020C1E90003704748F210507047CD
:10E8940048F21350704730B1036848F240508B423D
:10E8A40008BF0020704748F21050704728B148F262
:10E8B4001150914208BF0020704748F21050704731
:10E8C40070B506460C461D46FFF7D8FF50B9B3791C
:10E8D4004AB1AB420AD11146204600F0FCF808B90F
:10E8E400044B236070BD48F21050FBE748F211500E
:10E8F400F8E700BF7052464D2DE9F0470C46064636
:10E904000F492046DDE9088915461F46FFF7C3FF76
:10E91400A0B963685A79494652004046FFF7C6FFDA
:10E9240060B94DB1CDF820803B462A462146304699
:10E93400BDE8F04700F0D7B848F21050BDE8F087C2
:10E944007052464D10B5044638B149B10B68416068
:10E95400984708B9044B236010BD48F20150FBE707
:10E9640048F21050F8E700BF6E524648F0B4134620
:10E9740048B10768094EB7420AD161B12AB1436868
:10E98400F0BC5B68184748F201531846F0BC704766
:10E9940048F20253F9E748F21053F6E76E5246483C
:10E9A400F0B460B107680C4EB7420CD171B1436842
:10E9B4001568DC68A5420CD3F0BC9B68184748F284
:10E9C4000150F0BC704748F20250FAE748F2135085
:10E9D400F7E748F21450F4E76E5246482DE9F04147
:10E9E4000446DDE9067815461E46FFF7ABFF60B91D
:10E9F400324629462046FFF7B9FF30B94246394628
:10EA04002046BDE8F041FFF7CBBFBDE8F081000030
:10EA1400F8B50A4F0A4C0B4EE41B0123E40833708B
:10EA24000025A54203D1022333700020F8BD57F816
:10EA3400353098470028F9D10135F2E794910F0059
:10EA440094910F00F62A002001390144814200D23A
:10EA5400704703780A7800F8012B01F80139F5E7CB
:10EA6400013A02440139824200D2704711F8013F51
:10EA740002F80139F7E770B516460D46FFF7F0FFC7
:10EA84003246A9193044BDE87040FFF7E9BF38B5F4
:10EA94000D460446FFF7D8FF29466019BDE8384003
:10EAA400FFF7D2BF13681F2B10B5144607D90022F5
:10EAB400083007F074FE08B92023236010BD48F223
:10EAC4001450FBE7083007F047BE083007F014BEC7
:10EAD40043689B68184708B5436808305A79FFF7BC
:10EAE400CAFF002008BD2DE9F0430C469BB0084640
:10EAF40098461746FFF7ECFFD4F8049099F80550B0
:10EB0400454528BF454606462A46394602A8FFF72A
:10EB1400A7FF99F8052022990AA8FFF7ACFF0096F1
:10EB24000AAB2A4602A904F1080008F08DFD00286A
:10EB340048F2425018BF00201BB0BDE8F08300002B
:10EB4400831F012B10B5044602D8002001F05AFBA4
:10EB5400034B1B681BB12046BDE81040184710BD8D
:10EB6400F82A00200C4B10B518600C4808F0C2FFBE
:10EB74000020FFF7E5FF0A4801F01AFB044620B91C
:10EB8400BDE81040064801F009B90146054808F0FF
:10EB9400B1FF204610BD00BFF82A00201D9D0F00C4
:10EBA40045EB0E00309D0F006CDF70476DDF704742
:10EBB40072DF704773DF704774DF704775DF70472B
:10EBC40076DF70477ADF70477CDF70477DDF704700
:10EBD4007FDF704786DF70478FDF704790DF7047B5
:10EBE400A8DF7047AADF7047ADDF7047AEDF70471C
:10EBF400B0DF7047B1DF7047B5DF704762DF704741
:10EC040066DF704713DF704710B5014604460448B9
:10EC140008F070FF21460348BDE8104007F040BAF1
:10EC24005A9D0F00B0910F0038B51B4D2C6814F09D
:10EC3400010428D0194B98422CD0194C194808F0DB
:10EC440059FF22884FF6FF739A421ED0164808F0E7
:10EC540051FF2B68208843F0040313212B60FFF736
:10EC6400AFFF044678B9114DC82445F001054FF4AF
:10EC74007A40A847013CFAD109F058F9044610B982
:10EC84000B4808F037FF204638BD0A4B1878FFF7C9
:10EC940093FFF1E70024F6E78C3B002094910F00EA
:10ECA400522600206C9D0F00899D0F0000A20F00CA
:10ECB400989D0F00502600207FB50023CDF80B301F
:10ECC4008DF80F300A4BADF806109B89ADF808306B
:10ECD40001238DF80A300DF10603CDE90430054B0C
:10ECE40002A91888FFF782FF07B05DF804FB00BF94
:10ECF400783B002052260020F0B5044687B000215E
:10ED04000D2202A801910AF013FA2378082B0BD1E3
:10ED14003B4A3C4913880988013B9BB21380F9B1F3
:10ED2400F3B9032311802370627821788DF80510DC
:10ED34006023012A8DF804308DF8062012D0324861
:10ED440008F0D8FE63780B2B12D100F0F1FC8DF89B
:10ED54000700002000F0E6FC042101A8FFF7ACFF47
:10ED640007B0F0BD062905D0082929D0032927D0EA
:10ED74000321F2E7E1688DF80710D4E90123080ABA
:10ED84008DF80800080C090E8DF80A10110A8DF888
:10ED94000B208DF80C10110C120E8DF80E201A0A8F
:10EDA4008DF80F308DF810201A0C1B0E8DF80D10F5
:10EDB4008DF809008DF811208DF812300F21CCE761
:10EDC400D4E90123C3F30741D7B2C2F30726C2F340
:10EDD4000745DCB2C3F30720120E1B0E8DF80D108D
:10EDE4008DF807708DF808608DF809508DF80A20A9
:10EDF4008DF80B408DF80C008DF80E300B21ACE72C
:10EE0400743B0020763B0020B19D0F0008B50A49F1
:10EE14000A4806220AF093F858B10749084806221E
:10EE24000AF08DF8074B01460348002918BF18461D
:10EE340008BD0148FCE700BF1CB00E00E59D0F00B3
:10EE4400EC9D0F00D89D0F000078402892BF00F081
:10EE54000F0000F04F003738704708B50246FFF73F
:10EE6400F3FF0346501CFFF7EFFF00EB0310C0B2A3
:10EE740008BD000070B518228CB000210DEB020013
:10EE84000AF056F90123282238488DF818300892E0
:10EE94008DF82D3008F02EFE1623ADF80630FFF75E
:10EEA400B5FF04463248FFF781FE08B1FDF714FCB4
:10EEB4002046FFF7D2FF2E498871A01CFFF7CDFF33
:10EEC4004871201DFFF7C9FF0871A01DFFF7C5FF9A
:10EED400C87004F10800FFF7C0FF887004F10A004D
:10EEE400FFF7BBFF0B7848706FF3470308460B70BE
:10EEF400FFF75AFE08B1FDF7EFFB1E4C0294002306
:10EF0400CDF80E30CDF81230ADF8163002230926B4
:10EF140006222370237159230125A27063710322F1
:10EF2400FE230DF10601A019ADF80C606570E270C6
:10EF3400A371FFF74BFEB8B9BDF8063026725A1913
:10EF4400E271BDF80C200C4C134402A906AA204619
:10EF5400ADF80C30FFF72CFE30B92078FFF72CFE0B
:10EF640020782946FFF726FE0CB070BDF39D0F00F4
:10EF7400693B0020FC2A002050260020F0B50388BD
:10EF8400242B8BB0044637D80F2B04D8012B00F068
:10EF94003E810BB0F0BD103B142BFAD801A252F8FD
:10EFA40023F000BF2DF00E005DF00E00B3F10E0053
:10EFB40079F10E006BF30E0097EF0E0097EF0E0041
:10EFC40097EF0E0097EF0E0097EF0E007FF30E0001
:10EFD40097EF0E0097EF0E0097EF0E0097EF0E00DD
:10EFE40097EF0E0097EF0E00E9F10E00D7F10E0037
:10EFF40049F10E0069F10E00503B9AB2062AC8D8B6
:10F00400062BC6D801A252F823F000BF89F00E00E7
:10F014001FF20E007FF30E0097EF0E0097EF0E0025
:10F02400F9F00E00FFF10E009748984D08F062FDCC
:10F03400A3882B80964B1B680BB1012098479549F8
:10F044002888FFF7BBFD01460028A2D092480BB0E8
:10F05400BDE8F04008F04EBD8C4B4FF6FF721A80AD
:10F064008E4B1B685A0704D4FFF704FF08B1FDF761
:10F0740033FB874B1B68002B8BD002200BB0BDE801
:10F08400F0401847864EE288B3889A4281D1854879
:10F0940006F0E2FF054628B983480BB0BDE8F0400E
:10F0A40008F028BDF4230146228A804808F022FD96
:10F0B400228A04F1120128460AF008F818220021D5
:10F0C40004A80AF035F808238DF81030784B06931D
:10F0D400784B0596CDE9073504A8238AADF824308A
:10F0E40000F048FE00283FF454AF6E48294606F06D
:10F0F400D7FF4EE7E488F62C214621D8E31E9B0770
:10F104000DD0E31F9BB2013B5A4202F0030203F00D
:10F11400030304F1FF3458BF5342E41AA4B266480F
:10F12400224608F0E7FC594B21461888FFF764FD96
:10F1340000283FF42EAF0BB0BDE8F040FDF7CCBA89
:10F14400F724ECE75D4808F0D5FC0022A08804A968
:10F15400CDE90422FFF742FD00283FF41AAFFDF782
:10F16400BBFA16E7C289418955480BB0BDE8F040A7
:10F1740008F0C0BC5348454C08F0BCFC022304937F
:10F18400208802AB04AA42F605210593FFF72CFD63
:10F1940008B1FDF7A1FABDF808104B4808F0AAFC25
:10F1A400002320881A468521FFF712FDD4E747483B
:10F1B40008F0A0FC6189464808F09CFC2189454878
:10F1C40008F098FCA189444808F094FCE18943487C
:10F1D4003DE7037A427A817A41480BB0BDE8F040BA
:10F1E40008F088BC3F4808F085FC0023A088ADF8EF
:10F1F400103004A9FFF7F0FCAEE7A379002B7FF4ED
:10F20400C8AE224B13211888FFF7DAFC90E71F4B96
:10F2140000211888FFF7F4FC8AE7A379002B3FF458
:10F22400B8AE022B7FF4B5AE1D4D2189AA89914257
:10F234007FF4AFAEA27B012A7FF4ABAE4FF48032F1
:10F244000592228A114EADF81820628AADF81A2070
:10F2540004F11402079201AF298A3088049302AAA8
:10F2640002930397FFF7C0FC00283DD13846FEF710
:10F27400D1FCC8BB40F2FD133088ADF8143004A9AA
:10F28400FFF7B6FC85E600BF029E0F005226002061
:10F29400703B002006A20F000C9E0F008C3B002048
:10F2A400783B0020B0910F003A9E0F00599E0F004A
:10F2B400FDEC0E000DEC0E00799E0F00BF9E0F00BA
:10F2C400F09E0F002E9F0F00569F0F00799F0F0096
:10F2D400A09F0F00B69F0F00CC9F0F00DE9F0F0072
:10F2E400F39F0F002DA00F00002304A93088ADF870
:10F2F4001430FFF77DFC014600287FF44AAE182243
:10F3040004A809F015FF237D214A8DF81030022B43
:10F31400059506921DD0062B10D0012B10D11D4B44
:10F324001A881D4B1A80637DD4F816200893012B8C
:10F33400099205D1194800F065FF01E0637D089347
:10F3440004A800F017FD014600283FF422AE14483B
:10F354007DE6144808F0CEFB0E4AB4F8153013804D
:10F364000D4A1380ECE7104808F0C4FB0023A08882
:10F374001A461946FFF72EFCDAE60023A0881A463F
:10F384001946FFF737FC08B1FDF7A6F9074884E6EC
:10F39400FDEC0E00763B0020743B002094910F009E
:10F3A40068A00F0056A00F009CA00F00C2A00F0081
:10F3B4002DE9F0413C4B94B005464FF6FF721A809C
:10F3C40001204FF659632A4602A98DF80A00ADF8C8
:10F3D4000830FFF705FC0446002861D1334B04AA2A
:10F3E40003F11007164618685968144603C4083315
:10F3F400BB422246F7D1A91C3046FFF7FFFB044667
:10F4040000284DD101461C220DA809F091FE9DF85B
:10F4140034300C9443F004038DF834300223ADF8F7
:10F424000C30AB788DF80E3003238DF80630F423BE
:10F43400CDE90A44ADF82C302B464FF4885833F804
:10F44400040BADF8048003AF01AE08AA0DA9089718
:10F454000996FFF7C7FB044610BB01461C220DA802
:10F4640009F066FE18238DF834300123ADF80C3012
:10F47400AB788DF80E3013238DF806301723CDE9C1
:10F484000A44ADF82C302B4608AA33F80C0B0C9424
:10F494000DA9CDE90876ADF80480FFF7A3FB044677
:10F4A400204614B0BDE8F081522600200EA20F00C1
:10F4B4007FB5444C236813F00105064670D14248D9
:10F4C40008F018FB414B42481E6006F0AEFD029561
:10F4D40000F049F9002864D13E493F4808F00AFB8E
:10F4E4003C48FFF78FFB00285BD13C4808F002FB47
:10F4F40008F0DEFC002854D102A808F0A9FD002879
:10F504004FD1374808F0F6FA02A9012008F0AAFD05
:10F51400002846D1334808F0EDFA02A808F034FE7A
:10F5240000283ED100F018FE00283CD02E4800F000
:10F5340003FE236843F002032360112302A88DF81D
:10F544000430FFF733FB60BB9DF8093002A8013398
:10F554008DF80930FFF728FB18BB23689A0726D5D6
:10F56400214D2248AA69291D08F0C4FAAA69291D57
:10F5740092B201A8FFF728FB98B91D48FFF722FBB8
:10F5840078B91C48FFF714FF58B91B4B1B78DB07ED
:10F5940013D42368194843F00103236008F0AAFA3E
:10F5A400002004B070BD164808F0A4FAC5E7154859
:10F5B40008F0A0FA14491422DAE7FFF75BFC0028EC
:10F5C400E7D0EEE78C3B0020F9A00F00703B002051
:10F5D400B0910F0000C00E0018A10F0038A10F0059
:10F5E4004DA10F0064A10F00903B002096A10F00D5
:10F5F40006A20F00783B0020E02A0020D6A10F00CD
:10F604007CA10F00B7A10F00E4A00F0037B542683A
:10F614000446007882B9104D10491346012818BFDA
:10F624002946A2680E4808F065FA636993B1E06858
:10F6340003B0BDE830401847002301932369064D09
:10F6440006490093012818BF2946A368054808F015
:10F6540051FAEAE703B030BD24A20F001EA20F0046
:10F664002AA20F0050A20F0008B548B1074808F0BD
:10F6740041FA07490748BDE80840002206F02ABDC0
:10F68400054808F037FA0549F4E700BF8CA20F00DB
:10F6940008BB0F0008260020B2A20F00DCBA0F003E
:10F6A400F7B51F46002304460D461646009313463D
:10F6B4000A460146094808F01DFA21460848009701
:10F6C40033462A4606F00AFD044618B101460548A9
:10F6D40008F010FA204603B0F0BD00BFDAA20F0014
:10F6E400082600201DA30F0070B5002304460D4614
:10F6F40016460A460146084808F0FCF933462A46ED
:10F704002146064806F0F1FC04460146044808F088
:10F71400F1F9204670BD00BF4AA30F00082600205F
:10F7240087A30F00014B18700B207047AC3B0020DF
:10F73400024B002218781A70704700BFAC3B0020BF
:10F7440018DF704730B585B0054610220C46684670
:10F75400002109F0EDFCA408684601950294FFF726
:10F76400EFFF05B030BD1FB50023CDE9013303938E
:10F77400684602230093FFF7E3FF05B05DF804FB3E
:10F784004FF000534FF480521A600020704700007D
:10F7940010B5044808F0AEF9034BBDE810401B68EF
:10F7A40006201847B4A30F00B03B00200A2803D951
:10F7B4000B38C0B2FFF7B6BF7047000030B504463F
:10F7C40087B0002006F098FC014660B118211E4A5B
:10F7D400204604F021F8014660B31C4807B0BDE898
:10F7E400304008F087B91822684609F0A1FC0423C8
:10F7F400174D8DF80030174B1A6D2B689A421BD1A8
:10F80400154808F077F9154B2968186801F0FEFAD5
:10F814008DF80100FFF7CAFFD4E901138DF8010048
:10F82400684698470E4800F025FC9DF801100D48E5
:10F8340008F060F907B030BD01238DF80130684647
:10F84400D4E901139847F0E7C1F70E00E8A30F00CD
:10F85400B43B0020BC42002011A40F00B83B0020A0
:10F8640095F70E0040A40F00F0B5044687B00021C0
:10F8740016220DF1020009F05BFC21788DF80010CE
:10F8840001258DF801501B2900F24A82DFE811F0AE
:10F894001C00C500B900C500C5004802C500B2007F
:10F8A400C500AB0033004900BD00480248024802CD
:10F8B4004802480248024802A200210021004802EE
:10F8C4004802480248024602AA4808F013F98DF893
:10F8D40004509DF80110A84808F00CF9D4E901136C
:10F8E400684698479DF80130012B00F01782A34B1E
:10F8F40005201B6811E2A24808F0FCF84FF0805381
:10F90400D3F800210192D3F804210292D3F80C21F8
:10F9140092020492D3F81021920203921B69059378
:10F92400D7E79848984D08F0E5F8217C974808F007
:10F93400E1F84FF44053964958682E6A227C884275
:10F9440014BF01230223012E22D001268DF8016069
:10F9540052B902238DF80430EB6802938D4B039364
:10F964004FF490330493B4E7012A29D1884225D176
:10F9740000234FF440528DF804301178142919D81B
:10F9840002934FF4805303934FF440539B68E9E789
:10F994008DF80160002ADCD0012A0DD18842E7D01D
:10F9A40001238DF80430AB68029300F083FCAB694B
:10F9B4000390D7E75369E3E70133DBB29A42EFD30D
:10F9C400754808F097F8FF238DF804300023CDE93B
:10F9D4000233C7E7714808F08DF871490C2201A879
:10F9E40009F0E6FA75E76F4808F084F8237C8DF88F
:10F9F40004306EE76C4808F07DF8238AADF80430D3
:10FA040067E76A4808F076F863E7694808F072F82F
:10FA14005A4B07201B6898475BE70629654D0ED0B3
:10FA2400012920D1237C2B70012B49D0022B00F01B
:10FA34009580614808F05EF800232B700DE1237C6B
:10FA44002B70012B00F08380022BF2D15B4808F06D
:10FA540051F84D4B5A48996C1A6D02914FF48053EA
:10FA640001920393FFE02B78012B15D0022BE0D1F8
:10FA7400033905293FF62DAF01A353F821F000BF48
:10FA8400D3FC0E00EDFC0E00D7F80E0051FA0E0068
:10FA9400D7F80E0071FC0E00033905293FF619AFA3
:10FAA40001A353F821F000BFE3FA0E0023FB0E007C
:10FAB400D7F80E0053FB0E00D7F80E00F5FA0E002F
:10FAC400404808F017F82D4B03201B6898476069DD
:10FAD40000F010FFFFF76AFE8DF80100F9E63A48DE
:10FAE40008F008F8284BDA6B1B6C01920293F0E6DD
:10FAF400364807F0FFFFA18A206900F013FFFFF7E3
:10FB040055FE214B8DF80100DA6B1B6C0293E36800
:10FB14000192002B3FF4DDAE20699847D9E62C48CA
:10FB240007F0E8FF2B492C4800F05AFFFFF73EFE90
:10FB340001288DF801007FF4CCAE002000F09AFA81
:10FB440008B926485EE70A238DF80130C1E6244847
:10FB540007F0D0FF4FF400730393C3E7214807F085
:10FB6400C9FF00F003FF002840D11F4807F0C2FF7F
:10FB74000823E9E768A40F0040A40F00B03B00206D
:10FB84008BA40F00AEA40F00BC420020D1A40F0030
:10FB9400DBE5B15100C00E00EEA40F0005A50F0077
:10FBA40004C20E0029A50F0040A50F005AA50F009E
:10FBB4007EA50F005426002016A90F00C4A80F002C
:10FBC400EBA80F0096A50F00C0A50F00E4A50F0039
:10FBD4000DA60F00B43B0020B83B002038A60F0050
:10FBE4005DA60F0087A60F00AEA60F00616921B9BC
:10FBF4004E4807F07FFF0323A6E7C1F30B0343B18D
:10FC04004B4B4C4A5B6D12680B44934201D04A48FB
:10FC1400EFE7B1F5805F04D9484807F06BFF042390
:10FC240092E7434D434B686D1B680A189A4204D906
:10FC34000246434807F05EFF9AE7EB6CAB64414B26
:10FC440069641B6828652863002201211844FFF7B2
:10FC54004BFD20B13C4807F04DFF052374E7AB6C26
:10FC64002A6D696C394807F045FF32E6384807F0D9
:10FC740041FF00F07BFE00283FF47AAF2C4DA18AAF
:10FC8400D5E914329B1A6A6C0B44934201D931486A
:10FC9400AFE72C4B2F6B1B68206905F148021F440A
:10FCA40006F0D0F8E368A28A216906463846FFF7D1
:10FCB400F7FC08B1E3682FE7A38A2A6BAE641A4401
:10FCC4002A632A6D029613442B65019301E6184DAD
:10FCD400214807F00FFFAA6C296D204807F00AFF9E
:10FCE400AB6C02932B6DF0E71D4807F003FF104B3C
:10FCF400D3E91402596C821A8A4203D0194807F0D6
:10FD0400F9FE35E79A6C5865002120465964DA6497
:10FD1400FFF754FD144B1B680420984707B0F0BD4F
:10FD2400124807F0E7FE02230EE700BFE3A60F0028
:10FD3400BC420020B43B0020FCA60F001DA70F000E
:10FD440041A70F00B83B0020B2A70F00C9A70F00BE
:10FD540004A80F002AA80F0041A80F0062A80F00F2
:10FD640078A80F00A0A80F00B03B002036A90F0010
:10FD7400FFF77ABD836810B553B1064A182103F022
:10FD84004BFD044610B1044807F0B4FE204610BDF4
:10FD94000724FBE775FD0E0055A90F0038B505468D
:10FDA400C0B10120FFF760FC044648B900F094FD9F
:10FDB40000F0DCFD30B9084B00201D60FFF7B2FCF9
:10FDC400204638BD0549064800F00AFE0128F2D055
:10FDD4000324F5E70724F3E7B03B0020B43B0020FD
:10FDE400B83B00202DE9F04115464FF460720446FB
:10FDF40088461E4609F0A3F8074648B9164807F096
:10FE040079FE15B90020BDE8F0813846A847F9E726
:10FE1400124807F06FFE2146114807F06BFE0022DE
:10FE240001212046FFF760FC20B10E4807F062FE76
:10FE34000320E8E74FF460724146304609F046F982
:10FE44002B464FF4607231462046FFF729FC002808
:10FE5400D8D00548EAE700BF71A90F00BBA90F007D
:10FE6400CFA90F00EFA90F0012AA0F00F8B5544C48
:10FE7400544E2368013306D134682368013300F0FB
:10FE8400928000250CE0201D0022582105F0DAFFA5
:10FE9400256834682B1A5D425D412368013372D0B2
:10FEA40000225821201D05F0CDFF236883426AD12A
:10FEB4006368012B09D00022C32104F5187005F0F2
:10FEC400C1FFD4F85C3283425DD1002D64D03E483A
:10FED4003E4D07F00FFE4FF4607239493C4809F07B
:10FEE400F5F83C4807F006FE33681A1D03F11406C2
:10FEF400106851682C4603C40832B2422546F7D133
:10FF0400354D03F1180203F13006106851682C4690
:10FF140003C40832B2422546F7D12D485A6B4263D6
:10FF240003F51771C82200F51770294E09F0CEF8B1
:10FF34007768012F43D1294806F5AE7507F0DAFD3D
:10FF44000FCD06F549740FC40FCD0FC40FCD0FC4E8
:10FF540095E80F0084E80F0004F11005A4F5DC74A3
:10FF64000FCC0FC594E80700002386F8603286F8AA
:10FF7400E232F369C6F8A232022385E8070086F864
:10FF8400A17273601BE075B10F4807F0B3FD0C4913
:10FF94004FF460720E48C8E7114807F0ABFD3168B2
:10FFA4004FF46072F6E70F4807F0A4FD084B4FF4D6
:10FFB40060720021184609F0BBF802224260F8BDC5
:10FFC40000F00F005826002039AA0F00C04200207C
:10FFD400BC4200204EAA0F00D442002035AB0F00D3
:10FFE40078AA0F00D1AA0F0070B50D4C0546002267
:0CFFF4005821204605F026FF002244F8AA
:02000002F0000C
:10000000040CC32104F5177005F01EFF261FC4F869
:1000100058022A463146044B0448BDE87040FFF7B9
:10002000E3BE00BFC04200203C3F002000F00F00B4
:1000300070B50A4E05460C460948316807F05CFD6C
:100040002146084B30682A46FFF7CEFE014620B114
:10005000BDE87040044807F04FBD70BD5826002031
:1000600061AB0F00BC3B00208BAB0F000149FFF7D9
:10007000DFBF00BF00F00F0038B505460020FFF7D6
:10008000B5FF044618B903492846FFF7D1FF2046BB
:1000900038BD00BFBC42002010B504460B4807F035
:1000A0002BFD2046FFF7E2FA044628B10146084836
:1000B00007F022FD032010BDFFF7DAFE2046FFF710
:1000C000DBFF0028F7D001460248F1E7C8AB0F007C
:1000D000EBAB0F0016AC0F0010B5084C4FF40072DC
:1000E000FF21204609F026F820220021A4F1240057
:1000F00009F020F8002344F82C3C10BD18430020E0
:1001000029DF704738B50C4D0446D5F8643378B113
:1001100001330FD100221821043005F095FE21464D
:100120002060072205F55970BDE83840FFF7E8BFA9
:100130000E2038BD0820FCE700F00F0050B1064B40
:1001400003F11C0253F8041B40F8041B9342F9D13D
:10015000002070470E20704764F30F0010B5064C66
:1001600000221821204605F06FFE54F8043C1B1AAB
:100170005842584110BD00BF68F30F0010B50B4C3A
:10018000D4F82433D4F86423134001330CD0084846
:1001900007F0B2FC4FF47F2001F096F9C922214606
:1001A0004FF47F2001F0BEF9002010BDBC420020BA
:1001B00050AC0F002DE9F041DFF848800E4DA5EB63
:1001C0000805ED08074629460C4807F095FC00266F
:1001D000AE4201D100240AE058F83630384698473C
:1001E000044638B102463146054807F085FC2046F2
:1001F000BDE8F0810136EBE7A4910F0077AC0F006A
:100200009BAC0F0094910F002DE9F0410F4C104D65
:100210002D1BED08074629460E4807F06DFC002609
:1002200004F10408AE4201D100240AE058F8363047
:1002300038469847044638B102463146064807F02A
:100240005BFC2046BDE8F0810136EBE794910F009E
:10025000A4910F00C7AC0F00ECAC0F00034A0023C1
:100260000360436083601363704700BFBC4200209B
:100270004FF44053074A5968914201BF986800F60D
:10028000FF7020F47F6020F00F0018BF4FF4805003
:10029000704700BFDBE5B15108B5FFF7E9FF054B3B
:1002A0009B69184400F6FF7020F47F6020F00F0077
:1002B00008BD00BFBC420020FFF7DABF4FF48050FA
:1002C000704700002DE9F04F85B00746594800926D
:1002D0000393029107F010FC39465748574EDFF858
:1002E0009481DFF8A4A107F007FC029B5448002B7F
:1002F00014BF3146414607F0FFFB009B5148002BDD
:1003000014BF3146414607F0F7FB039B4E48002BD4
:1003100014BF3146414607F0EFFB4FF440534B48C2
:1003200059684B4B994214BF4146314607F0E4FBF4
:10033000484807F0E1FBDAF81820DAF820104648C0
:1003400007F0DAFBDAF82420DAF82C10434807F03B
:10035000D3FB0025012D36D0022D43D0FFF79CFFA3
:10036000009B81466BB3DAF82040631E5C425C411F
:100370003B4BA3EB090BBB4538D22946394807F064
:10038000BBFB4946384807F0B7FB012301933146D0
:10039000364807F0B1FB3648002C14BF31464146C1
:1003A00007F0AAFB019B6BBB3249334807F0A4FB63
:1003B000BB4539D2314807F09FFB042005B0BDE8AA
:1003C000F08F009CD4E7FFF753FF039B81463BB9B6
:1003D0004FF440521E4B5468E41A18BF0124C7E77B
:1003E0002C46C5E701244FF48059C1E7029B1D4804
:1003F0000193294607F080FB49461B4807F07CFB28
:100400004146C5E71C48314607F076FB002CCFD1AA
:100410000135032D9ED1BB45CCD3194807F06CFBA9
:100420001848FFF71BFF02E0EDB2002DF5D10020C8
:10043000C4E700BF21AD0F003FAD0F0016AD0F00A8
:1004400054AD0F0065AD0F0073AD0F0088AD0F0008
:10045000DBE5B15198AD0F00A7AD0F00C7AD0F00A0
:1004600000A00E00E7AD0F00F1AD0F0006AE0F00CB
:100470001BAE0F001BAD0F002EAE0F003FAE0F00E6
:100480006BAE0F00D4420020BC4200202DE9FF4794
:100490003249334D8A6B334C334FDFF8EC90DFF841
:1004A000ECA06E465C313046FCF78AFF96E80F0000
:1004B00085E80F0000212D4B39704FF4477220461C
:1004C000C9F80010CAF80010EB6008F033FE2849A4
:1004D00022462846FDF70EFA38B9264807F00CFBED
:1004E0000027384604B0BDE8F0873F783FB194F864
:1004F0006C3194F800801BB3B8F1000F01D01E4896
:10050000ECE794F87231002BEAD0DAF80020D9F841
:1005100000103046FCF754FF96E80F0085E80F0006
:100520004FF4B272414604F5BA7008F003FE134965
:1005300004F5BA722846FDF7DDF958B91048CDE741
:10054000B8F1000FCCD0A379002BC9D008340D4BE3
:100550001C60C6E704F5BA74F9E700BFBC4200208E
:100560000C470020244700203C46002009060F00CD
:100570006C9B0F007DAE0F00AAAE0F000C9C0F000D
:10058000C9AE0F0008470020204700201C4700206C
:1005900010B590F8553013F0FB0F0A4608D190F8CB
:1005A00064306BB1836E5BB113600124204610BDD3
:1005B00003F00201DB0705D411B190F85C3093B968
:1005C0000F2418E090F85630002BF5D0836D0029E9
:1005D000E9D090F85C100029E5D0016EB1F5903FAC
:1005E00003D80B44DFE70023F7E705484FF49032C8
:1005F00007F082FA0424034807F07EFAD6E700BF2A
:1006000005AF0F0022AF0F005B68DA68104B9A420B
:1006100030B40AD1D0E901140E48036813B90E4A68
:10062000136823B10D4B00221A7030BC70470B4683
:1006300013F9015B002DFBDB2144C91A0360074B52
:10064000116030BC012206481A7007F055BA00BF8D
:100650000C9C0F00204700201C4700203C46002037
:1006600053AF0F004FF440531A495A6800F5005039
:100670008A4210B5446804D0631A5C425C4120464B
:1006800010BD944223D11A780178142A09D814296C
:1006900019D80024104923462246104807F02CFAA6
:1006A000EDE714295A690E4BB2FBF3F20DD94369F9
:1006B0000B49B3FBF1F30B48074993420EBF0024EB
:1006C00001240146E9E70022F1E70023F3E70024D3
:1006D000D5E700BFDBE5B15176AF0F007CAF0F006F
:1006E00040420F0070AF0F0000B591B0FEF792F9D5
:1006F000684608492022FEF7C0F96A4606490748BD
:100700004023FEF7DFF8064B01221A7011B05DF8A6
:1007100004FB00BF50920F00C0460020609B0F00FA
:100720003D4600202DE9F041A2B007460C46154693
:100730001E4678222023002104A80293DDF8A08021
:1007400008F0F8FC002303932C4B1B780BB9FFF740
:10075000CBFF2B4807F0D0F934B92A4807F0CCF981
:10076000132022B0BDE8F08127B1274807F0C4F973
:100770001620F6E74146254807F0BEF902AB019383
:10078000234B009323494346324604A8FEF728F939
:1007900088BB402D2FD1204B214604F140021C463E
:1007A00051F8040B43F8040B9142F9D11B4807F0B0
:1007B000A3F919482021FEF76CF94023CDE9004345
:1007C0001749029B124A03A8FEF798F8014668B140
:1007D000144807F091F9144807F08EF9134807F010
:1007E0008BF9134807F088F90520BAE7114807F09C
:1007F00083F90120B5E70A20B3E700BF3D4600209A
:10080000BCAF0F00E4AF0F00F8AF0F000FB00F0048
:100810005E460020489B0F007E4600202AB00F0055
:10082000C04600203BB00F005DB00F0068B00F0065
:100830006EB00F007AB00F00F0B5ABB004460D46B5
:1008400016461F467822202300210CA8039308F0A7
:1008500071FC1A4B1B780BB9FFF746FF2FB12146ED
:10086000202204A8FEF7FEF804AC324629461448BC
:10087000144F07F041F903AB134901930097334636
:100880002A460CA8FEF7ACF8014628B10F4807F03D
:1008900033F900202BB0F0BD20222146384608F065
:1008A00050FB48B10A4807F027F90A4807F024F935
:1008B000094807F021F9ECE70120EBE73D4600206D
:1008C00089B00F003E460020489B0F00BCB00F00CF
:1008D000EDB00F0007B10F0019B10F0008B5044BC0
:1008E000986B08B1FFF7D2FD024B187008BD00BF2E
:1008F000BC420020404A002010B5044658B1B0F573
:10090000007F0AD8064B00221A70FFF7E5FB054B63
:1009100001209C6310BD0320FCE70420FAE700BF20
:10092000404A0020BC42002070B50F4C0646E06BE8
:10093000A36B42189A420D4604D90C4807F0DCF824
:10094000032070BD5C300A462044314608F0C0FBED
:10095000E36B04F140022B4429463046E36305F083
:1009600073FA20640120ECE7BC42002029B10F009B
:10097000014B1878704700BF404A002037B5144D2E
:1009800095F86C2102B395F8D802B5F8DA2205F58E
:10099000377105F5B8750F4B1B6800930E4B1B683C
:1009A000FFF7C0FE0128044605D1281D00F034FAE7
:1009B0000128044605D0094807F09EF8084807F0CA
:1009C0009BF8204603B030BD114610460435E2E7DF
:1009D000244700201C470020204700204CB10F0076
:1009E00062B10F002DE9F8432A4BD3E90E329A4247
:1009F00006460D4606D0284807F07EF80824204613
:100A0000BDE8F883DFF8A48098F800704FB1FFF7D5
:100A100043FC224B306029461868BDE8F843FFF7D5
:100A2000B7BDFFF733FD78B3FFF7A8FF01283760A4
:100A300004462F601BD1DFF864902946D9F80000E6
:100A4000FFF7A6FD0128044611D1D9F8003093F82C
:100A50005510012903468CBF0021012128683A4620
:100A6000FFF730FC30B10E4807F046F80424FFF7DA
:100A700033FBC4E7FFF710FC01463060094807F07C
:100A80003BF888F80040BAE7074807F035F8052436
:100A9000B5E700BFBC42002070B10F00084700203E
:100AA0008BB10F00A6B10F00C2B10F00404A002069
:100AB00001237230FFF7C0BE13B504460846237801
:100AC0001146032B10D8DFE803F00902121B0022A5
:100AD000D4F8014005F0B8F9844201D1012004E0C6
:100AE0000D48002107F008F8002002B010BD0A46AA
:100AF00000230146601C02B0BDE81040FFF79CBE19
:100B0000034600914022611C0020FFF70BFE431EAC
:100B100058425841E9E700BFDFB10F002DE9F0432B
:100B2000A3B005460E461446002178221F4604A8AD
:100B300020239DF8AC800393DDF8A89008F0FAFA22
:100B400041220021284608F0F5FAB6F89430A34275
:100B500082BF442303FB046393F8968085F80080EA
:100B6000B8F1030F31D8DFE808F009020F250022A1
:100B70004946384605F068F9C5F801004A46394645
:100B80002846FFF799FF12E003AB01936B1C00931B
:100B90000F494B463A4604A8FDF722FF0028EDD046
:100BA00005F004FD01460B4806F0A6FF002023B027
:100BB000BDE8F08344235C4333199A34B3F898209A
:100BC0003119681C08F084FAD8E703484146EBE77E
:100BD000489B0F0002B20F0033B20F002DE9F04323
:100BE0007F4B1E68A5B00446884615460A46014656
:100BF0003046FFF75DFF002800F0E68096F855705C
:100C000077BB4FF00109CDE9008923463A463146CA
:100C100013A8FFF783FF20B9002D40F0DA800525E7
:100C2000D4E0002D32D06F4D412213A905F2A1204E
:100C300008F04EFA6C48C5F82C9006F05DFF73681A
:100C40002F62AB6000224146204605F0FDF8654B5F
:100C5000C3E909800125FFF73FFA624B9C6418E065
:100C60004122002102A808F065FA07F0010941229B
:100C7000002113A807F0020708F05CFAB9F1000F91
:100C80000BD1002F77D1002D40F09480554B0125DA
:100C90005D61284625B0BDE8F08304F50051534A54
:100CA0004868B36D904203D0514806F025FFB3E782
:100CB00003F5FF5203F6FF73C3F30B031F32D21A7F
:100CC0008B68934201D24B48EFE74FF440535A6888
:100CD000824205D118780A7810280BD8102A11D82A
:100CE0002046FFF7BFFC88B1434806F005FF6FB907
:100CF0004248DAE7102A1B6906D90A699A42EFD0FE
:100D00003F48D2E70023F8E70022F7E701230193E9
:100D1000B36D009300222346314602A8FFF7FEFE82
:100D200000283FF479AFB26D47B3A318A8EB0202D5
:100D30000021CDE9002113A84A463146FFF7EEFE17
:100D400000283FF469AF9DF84C3013B12D4806F0F0
:100D5000D3FE002D9AD0B9F1000F11D1214BAA2258
:100D6000DA62204F412213A907F2E22008F0B0F91D
:100D70007368FB601AE042462346D9E7002D85D010
:100D80002046FFF76FFC10B11F48FFF767FADFF846
:100D90005490412202A909F5187008F099F9B36D31
:100DA00067B9A522C9F82C20C9F83430002D3FF4CA
:100DB0006DAF47E70B4BAA22DA6243E7AC22C9F8D2
:100DC0002C20C9F83430CCE745B91725FFF784F952
:100DD0005FE705250D48FFF741FA3CE71725F9E7DE
:100DE00008470020BC42002054B20F00DBE5B1519F
:100DF0007CB20F00CDB20F00A3B30F00E4B30F001D
:100E000036B30F0025B40F00D4420020E04200208A
:100E10000122FFF7E3BE000090F85420F8B5034626
:100E200062B190F85500032808D893F86E20032A81
:100E300009D02D4806F060FE1420F8BD2B4806F0BE
:100E40005BFE0F20F9E71A7A0AB92948F7E7DA6852
:100E5000342A04D0274806F04FFE1120EDE74FF466
:100E6000405525496C681A8A8C4221D142B1596992
:100E7000B9B1D2B203F110040021CEB2B24204D80B
:100E80001E4806F039FE1220D7E7AE8954F8047FD9
:100E9000B74201F10101F0D11A78C2B90128CCD0D2
:100EA00011E090B10128EBD01A7892B91448C6E746
:100EB00012B15A69002AE3D101281A7802D1002A16
:100EC000BBD1DDE71AB90028F0D10120B5E7012830
:100ED000FBD95A680B4BDB689A42F6D80A4806F0F1
:100EE0000BFE1020A9E700BF80B40F0069B40F000B
:100EF00093B40F00A2B40F00DBE5B151B5B40F00FD
:100F0000D9B40F00BC420020C5B40F0042DF7047C7
:100F100043DF704738B5074C051E04F1080318BFBE
:100F20001C4623682BB11A6822605B6828469847E4
:100F3000F7E738BD4C4A002020B9054B01225A7012
:100F4000FFF7E8BF012802D1014A9070F8E7704727
:100F5000444A002020B9034B01225A70FFF7DABF40
:100F6000704700BF444A002038B5104C2378DBB9E5
:100F70000F486360A3602361E36000F009FB05464E
:100F800007F014F808B900F01DFB01232370094B8A
:100F9000D3F800340BB10123A370074A074908486E
:100FA00006F0AAFD284638BD8525F0E7444A002012
:100FB000390F0F0000000140F2C10F000BB50F0008
:100FC000EDB40F0037B5184CA378054603F0FF02C7
:100FD0009BB110B143680120984700230DF1070031
:100FE0008DF8073004F0F6FEE3680133E3609DF806
:100FF000070004F013FF03B030BD0DF107008DF8BA
:10100000072004F0E7FE25B1226913463BB92A60A8
:101010002561E368002BE7D100F0EEFAE4E79D429A
:10102000F7D01B68F2E700BF444A002037B50D4CEB
:1010300000230DF107008DF8073004F0CBFEE368C4
:10104000013BE360E36833B9074BD3F8005415B9AB
:1010500000F0DFFAA5709DF8070004F0DFFE03B092
:1010600030BD00BF444A002000000140012813B5F4
:101070000CD0032820D038B9134B0122C3F88020AC
:10108000BFF34F8FBFF36F8F02B010BD0F4C002323
:101090000DF107008DF8073004F09CFE23780BB9A2
:1010A000FFF762FFE3689DF807000133E360012367
:1010B000A37004F0B3FEE7E700F084FA02B0BDE8E5
:1010C0001040FFF7B3BF00BF00E100E0444A00203A
:1010D00008B506F06BFF28B94FF08043D3F8180429
:1010E000C0F3004008BD000037B51B4C63780546CF
:1010F00003F0FF029BB110B1436800209847002322
:101100000DF107008DF8073004F064FE63680133C9
:1011100063609DF8070004F081FE03B030BD0DF15F
:1011200007008DF8072004F055FE25B1A26813468C
:1011300053B92A60A5606368002BE7D106F036FF3B
:1011400030B1FFF7E3FEE1E79D42F4D01B68EFE723
:1011500000F070FADAE700BF444A002073B50F4C84
:1011600000230DF107008DF8073004F033FE6368AB
:10117000013B6360666836B906F018FF054640B16A
:10118000FFF7C6FE66709DF8070004F047FE02B048
:1011900070BD00F05BFA6570F5E700BF444A0020BF
:1011A00036DF70474DDF70474EDF70474FDF7047C7
:1011B00050DF704710B50446FFF7F6FF40B92046F0
:1011C000FFF7F0FF20B92046BDE81040FFF7EEBF63
:1011D00010BD012810B5044606D100F09FFC8047E1
:1011E000BDE8104000F0A0BC00F09EFC034668B1D2
:1011F0000A2C07D00B2C07D0092C07D10220BDE800
:10120000104018470020FAE70120F8E710BD000061
:10121000012813B5044603D0032820D002B010BD26
:101220001D4B1B78002BF9D000230DF107008DF822
:10123000073004F0CFFD00F071FC10B12046FFF73D
:10124000AFFF9DF8070004F0E9FD00F06DFC0028F9
:10125000E4D0012002B0BDE81040FFF7ABBF0E4B59
:101260001B78002BDAD00D4BC02283F8002301221B
:101270001A6000F053FC20B14FF080430422C3F801
:10128000042300F051FC0028C8D04FF080434FF4F5
:101290006072C3F80423C1E7584A002000E100E06F
:1012A00038B50B4D2B7804466BB906F07FFE60B95C
:1012B000084B002C14BF2046184600F03BFC08B930
:1012C00001232B7038BD8520FCE70820FAE700BF1A
:1012D000584A00201EB50F0013B500240DF1070079
:1012E0008DF8074004F076FD06F060FE58B1204608
:1012F000FFF760FF9DF8070004F090FD02B0BDE825
:10130000104000F04DBC00F044FCF3E713B5044678
:10131000FFF7E2FF204600F02FFC06F047FEA8B1E1
:101320000120FFF747FF044668B901A8FFF740FF17
:10133000044640B9019BDB0704D500F0F5FB0346EA
:10134000204698470024204602B010BD00F01AFC49
:10135000F8E700001FB503788DF800308388ADF8FA
:10136000043083688DF80630C3688DF80730036950
:1013700002934369054A0393054B684653F82130AD
:1013800052F82110984705B05DF804FB5C4A002034
:10139000644A0020024B4FF4807043F00103184769
:1013A00020B50F001F2886BF044A00F01F004FF031
:1013B000A04201238340C2F8083570470003005063
:1013C0002DE9F047154690F80080374A42F828503A
:1013D000364A42F828304B7B06460C4683B30868F1
:1013E000D1F8049087004FEA890107F1A04701F185
:1013F000A04140F20C63C7F80037C1F80037FFF78F
:10140000D1FF4846FFF7CEFF40F20D63C7F8003723
:10141000C1F80037FFF7BEFFDFF8989000274FF0C4
:10142000010A63681F2B8ABF4A464FF0A04203F0AF
:101430001F03D2F8102522FA03F3DB070BD507BBF5
:10144000002D1B4A434608BF2A462146301DBDE8F1
:10145000F04700F05DBD23681F2B86BF03F01F031C
:101460004A464FF0A0420AFA03F3C2F80C35FFF7E0
:1014700091FF01372068FFF795FFFFF78BFF092FDA
:10148000CFD163681F2B86BF0A4903F01F034FF0BB
:10149000A041012202FA03F3C1F80C35FFF77AFFED
:1014A0006068FFF77FFFCBE7644A00205C4A0020BA
:1014B00055130F0000030050024AD2F80034002BED
:1014C000FBD0704700E001400A4908B50223C1F88B
:1014D0000435BFF36F8FBFF34F8FC1F80805FFF7D7
:1014E000EBFF0023C1F80435BFF36F8FBFF34F8FBD
:1014F00008BD00BF00E0014010B5094C0123C4F84D
:101500000435BFF36F8FBFF34F8F0160FFF7D4FF38
:101510000023C4F80435BFF36F8FBFF34F8F10BDA6
:1015200000E0014070B50E4E01231546C6F80435A3
:10153000BFF36F8FBFF34F8F0024AC4207D100235E
:10154000C6F80435BFF36F8FBFF34F8F70BD51F8EE
:10155000243040F82430FFF7AFFF0134EDE700BF3F
:1015600000E0014010B5034653E8000F00EA010215
:1015700043E8002494F0000FF6D110BD00F1804044
:10158000002382B0036003680193019B02B070479F
:10159000084A10B5147954B90121947110609180F2
:1015A000054A0649064806F0A7FA204610BD8524DC
:1015B000F6E700BF704A0020F2C10F006BB50F00C4
:1015C000EDB40F00094B1A68D20704D4C02283F887
:1015D000002301221A604FF080430022C3F818252F
:1015E000034B044801221A7006F086BA00E100E0BD
:1015F0006C4A002026B50F0008B54FF48270FFF743
:10160000BDFF4FF080430222C3F8042301229A60F9
:1016100008BD4FF0804208B50223C2F808334FF4EA
:101620008270FFF7ABFF0123D360D2F81834DB03DD
:10163000FBD408BD08B54FF48070FFF79FFF4FF053
:1016400080430122C3F804231A6008BD4FF0804292
:10165000012108B54FF48070C2F80813FFF78EFF20
:101660005160D2F80C3403F00113B3F1011FF8D02C
:10167000014B00225A7108BD704A00204FF0804192
:1016800070B5D1F8003163B14FF48070FFF776FF89
:10169000234B58790122C1F8082310B95A711B68ED
:1016A00098474FF08042D2F8043153B14FF4827022
:1016B000FFF764FF0223C2F80833194B01201B68AF
:1016C00098474FF08044D4F8103173B14FF48870CC
:1016D000FFF754FF1349144806F00EFA1023C4F81C
:1016E00008330F4B02201B6898474FF08044D4F812
:1016F0000C31A3B10025C4F8345C4FF48670FFF7B9
:101700003DFF0A49084806F0F7F90823C4F80833F2
:10171000034B9D71BDE870401B680320184770BDE6
:10172000704A002036B50F004BB50F0056B50F00BC
:1017300000F1804000F5C040002382B003600368E0
:101740000193019B02B0704703681F2B83BF03F016
:101750001F03036001484FF0A04070470003005092
:1017600007B5019001A8FFF7EFFF019B00EB830095
:10177000D0F8003723F44033C0F80037D0F80037F2
:1017800043EA0141C0F8001703B05DF804FB000014
:10179000F7B5424F3B18044693F92430002B7ADA10
:1017A0008878C0F34000002815BF002308234FF0BD
:1017B000080C4FF0090C634508D10424384A394914
:1017C000394806F099F9204603B0F0BD57F8236078
:1017D00001364FEA830546D107EB040C5EB247F8A9
:1017E00023208CF8246010B93B4483F84C408B785C
:1017F00058071AD4DA0738D501A80194FFF7A4FFD7
:10180000019B00EB8300D0F8003723F00203C0F8FF
:1018100000372648E20804F0070C012303FA0CF312
:1018200010F802C043EA0C0383548B780A789B07B4
:1018300027D505F1804303F5C0432402D3F81015E2
:1018400021F44F3121F44071C3F810151204D3F87C
:10185000101504F47C5402F4403214430C43C3F8D2
:1018600010450024AAE70133A5E701A84A780194AE
:10187000FFF76AFF019B03F5E073920040F8232015
:10188000C7E7083E47FA86F696F8543043EA8213D3
:1018900086F85430E5E7082490E700BF784A002036
:1018A000F2C10F007BB50F00EDB40F00CD4A002050
:1018B00037B5224D2B18044693F92420072A1DDD45
:1018C000083A45FA82F292F854309B09032B10D162
:1018D000019001A8FFF738FF019BD0F81015D940FF
:1018E00001F001010231204603B0BDE83040FFF7AE
:1018F00037BF012B0CBF02210321F4E7D3B2072B22
:101900001AD8930003F1804303F5C043D3F81005C0
:1019100040F00100C3F8100502F1400040B2800021
:1019200080B2FFF705FF39B155F8223023B101230A
:101930009340034AC2F8043303B030BD784A002014
:10194000006000400E4B034493F92420072A02DD77
:101950000021FFF705BFD3B2072B0FD8930003F187
:10196000804303F5C043D3F8101521F00101C3F8FB
:10197000101501239340034AC2F80833704700BF93
:10198000784A0020006000402DE9F04385B002AEA7
:101990000024574D029474604FF48072012102F1CB
:1019A000804303F5C0431B68012B07D1D5F80433EE
:1019B0000B4203D090B2FFF7BBFE0C430432B2F5EA
:1019C000907F4FEA4101EAD1494BD3F87C31012B9A
:1019D000E2B22FD14FF4BE70FFF7AAFE4FF0A04342
:1019E000D3F820150291C3F82015D3F820180391DD
:1019F000C3F8201812B344F00044DFF8FC8001273C
:101A000000253C4210D0AB0003F1804303F5C043F6
:101A1000D3F81005D3F8101558F8253023B1C1F3C9
:101A20000141C0F3052098470135082D4FEA4707CB
:101A3000E7D101E0002AE0D1002C20DADFF8B880FD
:101A40002C4F00224FF0010998F9541098F8544097
:101A500001F0070324F0C00509FA03F3C4F3C20040
:101A600082B14FF0A042D2F820350293C2F820355F
:101A7000D7F8202503921343C7F82025E1D105B0FC
:101A8000BDE8F0834A1CECD0325C1A42E9D001A8D0
:101A90000195FFF759FE019B03F5E07350F82320F1
:101AA000C2F30142022A0CBF032102212846FFF79C
:101AB00057FE01A80195FFF747FE019B09FA03F3C2
:101AC000C0F8203508EB050393F9243058F823308B
